{"contracts/ConsentMinimalEvent.sol":{"ConsentMinimalEvent":{"abi":[{"anonymous":false,"inputs":[{"indexed":true,"internalType":"address","name":"user","type":"address"}],"name":"Access","type":"event"},{"anonymous":false,"inputs":[{"indexed":true,"internalType":"address","name":"user","type":"address"},{"indexed":false,"internalType":"bool","name":"consented","type":"bool"}],"name":"Consent","type":"event"},{"anonymous":false,"inputs":[{"indexed":true,"internalType":"address","name":"user","type":"address"}],"name":"Deletion","type":"event"},{"inputs":[],"name":"emitAccess","outputs":[],"stateMutability":"nonpayable","type":"function"},{"inputs":[],"name":"emitDeletion","outputs":[],"stateMutability":"nonpayable","type":"function"},{"inputs":[{"internalType":"address","name":"user","type":"address"}],"name":"hasConsented","outputs":[{"internalType":"bool","name":"","type":"bool"}],"stateMutability":"view","type":"function"},{"inputs":[{"internalType":"bool","name":"consented","type":"bool"}],"name":"setConsent","outputs":[],"stateMutability":"nonpayable","type":"function"}],"evm":{"bytecode":{"linkReferences":{},"object":"608060405234801561001057600080fd5b506101eb806100206000396000f3fe608060405234801561001057600080fd5b506004361061004c5760003560e01c8063071db8141461005157806341c5308714610091578063b707f3711461009b578063efb2cc80146100ae575b600080fd5b61007d61005f366004610163565b6001600160a01b031660009081526020819052604090205460ff1690565b604051901515815260200160405180910390f35b6100996100b6565b005b6100996100a9366004610193565b6100e3565b610099610136565b60405133907fbb8ac28fd5774540480c112eb8ed284f379072c4e4be5c0f663accdd4a93a7a890600090a2565b3360008181526020818152604091829020805460ff191685151590811790915591519182527f3bdbf1112f4c66b1ef3d3103f574f8d68ae4caffe3aa390945ff1af928e72fe8910160405180910390a250565b60405133907fc402296a31836a77c00eb83e0115f7adfa1ff52a2b793a9da0a25a04c4bc37e990600090a2565b60006020828403121561017557600080fd5b81356001600160a01b038116811461018c57600080fd5b9392505050565b6000602082840312156101a557600080fd5b8135801515811461018c57600080fdfea26469706673582212205031a5bfe8fecc5af48e4b7cc34bc2649a3ab589967b2b7d94da4aaea796b31e64736f6c63430008180033","opcodes":"PUSH1 0x80 PUSH1 0x40 MSTORE CALLVALUE DUP1 ISZERO PUSH2 0x10 JUMPI PUSH1 0x0 DUP1 REVERT JUMPDEST POP PUSH2 0x1EB DUP1 PUSH2 0x20 PUSH1 0x0 CODECOPY PUSH1 0x0 RETURN INVALID PUSH1 0x80 PUSH1 0x40 MSTORE CALLVALUE DUP1 ISZERO PUSH2 0x10 JUMPI PUSH1 0x0 DUP1 REVERT JUMPDEST POP PUSH1 0x4 CALLDATASIZE LT PUSH2 0x4C JUMPI PUSH1 0x0 CALLDATALOAD PUSH1 0xE0 SHR DUP1 PUSH4 0x71DB814 EQ PUSH2 0x51 JUMPI DUP1 PUSH4 0x41C53087 EQ PUSH2 0x91 JUMPI DUP1 PUSH4 0xB707F371 EQ PUSH2 0x9B JUMPI DUP1 PUSH4 0xEFB2CC80 EQ PUSH2 0xAE JUMPI JUMPDEST PUSH1 0x0 DUP1 REVERT JUMPDEST PUSH2 0x7D PUSH2 0x5F CALLDATASIZE PUSH1 0x4 PUSH2 0x163 JUMP JUMPDEST PUSH1 0x1 PUSH1 0x1 PUSH1 0xA0 SHL SUB AND PUSH1 0x0 SWAP1 DUP2 MSTORE PUSH1 0x20 DUP2 SWAP1 MSTORE PUSH1 0x40 SWAP1 KECCAK256 SLOAD PUSH1 0xFF AND SWAP1 JUMP JUMPDEST PUSH1 0x40 MLOAD SWAP1 ISZERO ISZERO DUP2 MSTORE PUSH1 0x20 ADD PUSH1 0x40 MLOAD DUP1 SWAP2 SUB SWAP1 RETURN JUMPDEST PUSH2 0x99 PUSH2 0xB6 JUMP JUMPDEST STOP JUMPDEST PUSH2 0x99 PUSH2 0xA9 CALLDATASIZE PUSH1 0x4 PUSH2 0x193 JUMP JUMPDEST PUSH2 0xE3 JUMP JUMPDEST PUSH2 0x99 PUSH2 0x136 JUMP JUMPDEST PUSH1 0x40 MLOAD CALLER SWAP1 PUSH32 0xBB8AC28FD5774540480C112EB8ED284F379072C4E4BE5C0F663ACCDD4A93A7A8 SWAP1 PUSH1 0x0 SWAP1 LOG2 JUMP JUMPDEST CALLER PUSH1 0x0 DUP2 DUP2 MSTORE PUSH1 0x20 DUP2 DUP2 MSTORE PUSH1 0x40 SWAP2 DUP3 SWAP1 KECCAK256 DUP1 SLOAD PUSH1 0xFF NOT AND DUP6 ISZERO ISZERO SWAP1 DUP2 OR SWAP1 SWAP2 SSTORE SWAP2 MLOAD SWAP2 DUP3 MSTORE PUSH32 0x3BDBF1112F4C66B1EF3D3103F574F8D68AE4CAFFE3AA390945FF1AF928E72FE8 SWAP2 ADD PUSH1 0x40 MLOAD DUP1 SWAP2 SUB SWAP1 LOG2 POP JUMP JUMPDEST PUSH1 0x40 MLOAD CALLER SWAP1 PUSH32 0xC402296A31836A77C00EB83E0115F7ADFA1FF52A2B793A9DA0A25A04C4BC37E9 SWAP1 PUSH1 0x0 SWAP1 LOG2 JUMP JUMPDEST PUSH1 0x0 PUSH1 0x20 DUP3 DUP5 SUB SLT ISZERO PUSH2 0x175 JUMPI PUSH1 0x0 DUP1 REVERT JUMPDEST DUP2 CALLDATALOAD PUSH1 0x1 PUSH1 0x1 PUSH1 0xA0 SHL SUB DUP2 AND DUP2 EQ PUSH2 0x18C JUMPI PUSH1 0x0 DUP1 REVERT JUMPDEST SWAP4 SWAP3 POP POP POP JUMP JUMPDEST PUSH1 0x0 PUSH1 0x20 DUP3 DUP5 SUB SLT ISZERO PUSH2 0x1A5 JUMPI PUSH1 0x0 DUP1 REVERT JUMPDEST DUP2 CALLDATALOAD DUP1 ISZERO ISZERO DUP2 EQ PUSH2 0x18C JUMPI PUSH1 0x0 DUP1 REVERT INVALID LOG2 PUSH5 0x6970667358 0x22 SLT KECCAK256 POP BALANCE 0xA5 0xBF 0xE8 INVALID 0xCC GAS DELEGATECALL DUP15 0x4B PUSH29 0xC34BC2649A3AB589967B2B7D94DA4AAEA796B31E64736F6C6343000818 STOP CALLER "},"methodIdentifiers":{"emitAccess()":"41c53087","emitDeletion()":"efb2cc80","hasConsented(address)":"071db814","setConsent(bool)":"b707f371"}}}}}