{"contracts/ConsentOptimized.sol":{"ConsentOptimized":{"abi":[{"anonymous":false,"inputs":[{"indexed":true,"internalType":"address","name":"caller","type":"address"},{"indexed":false,"internalType":"uint256","name":"usersProcessed","type":"uint256"}],"name":"AccessBatch","type":"event"},{"anonymous":false,"inputs":[{"indexed":true,"internalType":"address","name":"user","type":"address"},{"indexed":false,"internalType":"bool","name":"consented","type":"bool"}],"name":"ConsentUpdated","type":"event"},{"anonymous":false,"inputs":[{"indexed":true,"internalType":"address","name":"caller","type":"address"},{"indexed":false,"internalType":"uint256","name":"usersProcessed","type":"uint256"}],"name":"DeletionBatch","type":"event"},{"inputs":[{"internalType":"address[]","name":"users","type":"address[]"}],"name":"batchRecordAccess","outputs":[],"stateMutability":"nonpayable","type":"function"},{"inputs":[{"internalType":"address[]","name":"users","type":"address[]"}],"name":"batchRecordDeletion","outputs":[],"stateMutability":"nonpayable","type":"function"},{"inputs":[{"internalType":"address","name":"user","type":"address"}],"name":"getUserState","outputs":[{"internalType":"bool","name":"consent","type":"bool"},{"internalType":"uint32","name":"accessCount","type":"uint32"},{"internalType":"uint32","name":"deletionCount","type":"uint32"}],"stateMutability":"view","type":"function"},{"inputs":[{"internalType":"bool","name":"consented","type":"bool"}],"name":"setConsent","outputs":[],"stateMutability":"nonpayable","type":"function"}],"evm":{"bytecode":{"linkReferences":{},"object":"608060405234801561001057600080fd5b506103e2806100206000396000f3fe608060405234801561001057600080fd5b506004361061004c5760003560e01c8063416ae7681461005157806345893e1a146100c0578063b707f371146100d5578063d781c28a146100e8575b600080fd5b61009861005f3660046102cf565b6001600160a01b031660009081526020819052604090205460ff81169163ffffffff620100008304811692660100000000000090041690565b60408051931515845263ffffffff928316602085015291169082015260600160405180910390f35b6100d36100ce3660046102ff565b6100fb565b005b6100d36100e3366004610374565b6101c3565b6100d36100f63660046102ff565b610218565b8060005b8181101561018757600080600086868581811061011e5761011e610396565b905060200201602081019061013391906102cf565b6001600160a01b031681526020810191909152604001600020805469ffffffff000000000000198116600166010000000000009283900463ffffffff908116820116909202179091559190910190506100ff565b5060405181815233907f057410e10a69e55d5fdf9980396ae81aea89e4ad210d9d8139c03210014ea36c906020015b60405180910390a2505050565b3360008181526020818152604091829020805460ff19168515159081178255925192835292917f7bdbd5ff3d003672492455cc5133da0a6ac7f911054f30d5f423443f90418c71910160405180910390a25050565b8060005b8181101561029c57600080600086868581811061023b5761023b610396565b905060200201602081019061025091906102cf565b6001600160a01b031681526020810191909152604001600020805465ffffffff00001981166001620100009283900463ffffffff9081168201169092021790915591909101905061021c565b5060405181815233907f0ff16a81aafc2fac1e6c20717d6b236df75f041f590dcc4e5a4b9ec30b8a8bf1906020016101b6565b6000602082840312156102e157600080fd5b81356001600160a01b03811681146102f857600080fd5b9392505050565b6000806020838503121561031257600080fd5b823567ffffffffffffffff8082111561032a57600080fd5b818501915085601f83011261033e57600080fd5b81358181111561034d57600080fd5b8660208260051b850101111561036257600080fd5b60209290920196919550909350505050565b60006020828403121561038657600080fd5b813580151581146102f857600080fd5b634e487b7160e01b600052603260045260246000fdfea2646970667358221220bf9afd21e2b122fd3f7e84f4b383f083f856f06cb2ce951ca3a0101f7428442c64736f6c63430008180033","opcodes":"PUSH1 0x80 PUSH1 0x40 MSTORE CALLVALUE DUP1 ISZERO PUSH2 0x10 JUMPI PUSH1 0x0 DUP1 REVERT JUMPDEST POP PUSH2 0x3E2 DUP1 PUSH2 0x20 PUSH1 0x0 CODECOPY PUSH1 0x0 RETURN INVALID PUSH1 0x80 PUSH1 0x40 MSTORE CALLVALUE DUP1 ISZERO PUSH2 0x10 JUMPI PUSH1 0x0 DUP1 REVERT JUMPDEST POP PUSH1 0x4 CALLDATASIZE LT PUSH2 0x4C JUMPI PUSH1 0x0 CALLDATALOAD PUSH1 0xE0 SHR DUP1 PUSH4 0x416AE768 EQ PUSH2 0x51 JUMPI DUP1 PUSH4 0x45893E1A EQ PUSH2 0xC0 JUMPI DUP1 PUSH4 0xB707F371 EQ PUSH2 0xD5 JUMPI DUP1 PUSH4 0xD781C28A EQ PUSH2 0xE8 JUMPI JUMPDEST PUSH1 0x0 DUP1 REVERT JUMPDEST PUSH2 0x98 PUSH2 0x5F CALLDATASIZE PUSH1 0x4 PUSH2 0x2CF JUMP JUMPDEST PUSH1 0x1 PUSH1 0x1 PUSH1 0xA0 SHL SUB AND PUSH1 0x0 SWAP1 DUP2 MSTORE PUSH1 0x20 DUP2 SWAP1 MSTORE PUSH1 0x40 SWAP1 KECCAK256 SLOAD PUSH1 0xFF DUP2 AND SWAP2 PUSH4 0xFFFFFFFF PUSH3 0x10000 DUP4 DIV DUP2 AND SWAP3 PUSH7 0x1000000000000 SWAP1 DIV AND SWAP1 JUMP JUMPDEST PUSH1 0x40 DUP1 MLOAD SWAP4 ISZERO ISZERO DUP5 MSTORE PUSH4 0xFFFFFFFF SWAP3 DUP4 AND PUSH1 0x20 DUP6 ADD MSTORE SWAP2 AND SWAP1 DUP3 ADD MSTORE PUSH1 0x60 ADD PUSH1 0x40 MLOAD DUP1 SWAP2 SUB SWAP1 RETURN JUMPDEST PUSH2 0xD3 PUSH2 0xCE CALLDATASIZE PUSH1 0x4 PUSH2 0x2FF JUMP JUMPDEST PUSH2 0xFB JUMP JUMPDEST STOP JUMPDEST PUSH2 0xD3 PUSH2 0xE3 CALLDATASIZE PUSH1 0x4 PUSH2 0x374 JUMP JUMPDEST PUSH2 0x1C3 JUMP JUMPDEST PUSH2 0xD3 PUSH2 0xF6 CALLDATASIZE PUSH1 0x4 PUSH2 0x2FF JUMP JUMPDEST PUSH2 0x218 JUMP JUMPDEST DUP1 PUSH1 0x0 JUMPDEST DUP2 DUP2 LT ISZERO PUSH2 0x187 JUMPI PUSH1 0x0 DUP1 PUSH1 0x0 DUP7 DUP7 DUP6 DUP2 DUP2 LT PUSH2 0x11E JUMPI PUSH2 0x11E PUSH2 0x396 JUMP JUMPDEST SWAP1 POP PUSH1 0x20 MUL ADD PUSH1 0x20 DUP2 ADD SWAP1 PUSH2 0x133 SWAP2 SWAP1 PUSH2 0x2CF JUMP JUMPDEST PUSH1 0x1 PUSH1 0x1 PUSH1 0xA0 SHL SUB AND DUP2 MSTORE PUSH1 0x20 DUP2 ADD SWAP2 SWAP1 SWAP2 MSTORE PUSH1 0x40 ADD PUSH1 0x0 KECCAK256 DUP1 SLOAD PUSH10 0xFFFFFFFF000000000000 NOT DUP2 AND PUSH1 0x1 PUSH7 0x1000000000000 SWAP3 DUP4 SWAP1 DIV PUSH4 0xFFFFFFFF SWAP1 DUP2 AND DUP3 ADD AND SWAP1 SWAP3 MUL OR SWAP1 SWAP2 SSTORE SWAP2 SWAP1 SWAP2 ADD SWAP1 POP PUSH2 0xFF JUMP JUMPDEST POP PUSH1 0x40 MLOAD DUP2 DUP2 MSTORE CALLER SWAP1 PUSH32 0x57410E10A69E55D5FDF9980396AE81AEA89E4AD210D9D8139C03210014EA36C SWAP1 PUSH1 0x20 ADD JUMPDEST PUSH1 0x40 MLOAD DUP1 SWAP2 SUB SWAP1 LOG2 POP POP POP JUMP JUMPDEST CALLER PUSH1 0x0 DUP2 DUP2 MSTORE PUSH1 0x20 DUP2 DUP2 MSTORE PUSH1 0x40 SWAP2 DUP3 SWAP1 KECCAK256 DUP1 SLOAD PUSH1 0xFF NOT AND DUP6 ISZERO ISZERO SWAP1 DUP2 OR DUP3 SSTORE SWAP3 MLOAD SWAP3 DUP4 MSTORE SWAP3 SWAP2 PUSH32 0x7BDBD5FF3D003672492455CC5133DA0A6AC7F911054F30D5F423443F90418C71 SWAP2 ADD PUSH1 0x40 MLOAD DUP1 SWAP2 SUB SWAP1 LOG2 POP POP JUMP JUMPDEST DUP1 PUSH1 0x0 JUMPDEST DUP2 DUP2 LT ISZERO PUSH2 0x29C JUMPI PUSH1 0x0 DUP1 PUSH1 0x0 DUP7 DUP7 DUP6 DUP2 DUP2 LT PUSH2 0x23B JUMPI PUSH2 0x23B PUSH2 0x396 JUMP JUMPDEST SWAP1 POP PUSH1 0x20 MUL ADD PUSH1 0x20 DUP2 ADD SWAP1 PUSH2 0x250 SWAP2 SWAP1 PUSH2 0x2CF JUMP JUMPDEST PUSH1 0x1 PUSH1 0x1 PUSH1 0xA0 SHL SUB AND DUP2 MSTORE PUSH1 0x20 DUP2 ADD SWAP2 SWAP1 SWAP2 MSTORE PUSH1 0x40 ADD PUSH1 0x0 KECCAK256 DUP1 SLOAD PUSH6 0xFFFFFFFF0000 NOT DUP2 AND PUSH1 0x1 PUSH3 0x10000 SWAP3 DUP4 SWAP1 DIV PUSH4 0xFFFFFFFF SWAP1 DUP2 AND DUP3 ADD AND SWAP1 SWAP3 MUL OR SWAP1 SWAP2 SSTORE SWAP2 SWAP1 SWAP2 ADD SWAP1 POP PUSH2 0x21C JUMP JUMPDEST POP PUSH1 0x40 MLOAD DUP2 DUP2 MSTORE CALLER SWAP1 PUSH32 0xFF16A81AAFC2FAC1E6C20717D6B236DF75F041F590DCC4E5A4B9EC30B8A8BF1 SWAP1 PUSH1 0x20 ADD PUSH2 0x1B6 JUMP JUMPDEST PUSH1 0x0 PUSH1 0x20 DUP3 DUP5 SUB SLT ISZERO PUSH2 0x2E1 JUMPI PUSH1 0x0 DUP1 REVERT JUMPDEST DUP2 CALLDATALOAD PUSH1 0x1 PUSH1 0x1 PUSH1 0xA0 SHL SUB DUP2 AND DUP2 EQ PUSH2 0x2F8 JUMPI PUSH1 0x0 DUP1 REVERT JUMPDEST SWAP4 SWAP3 POP POP POP JUMP JUMPDEST PUSH1 0x0 DUP1 PUSH1 0x20 DUP4 DUP6 SUB SLT ISZERO PUSH2 0x312 JUMPI PUSH1 0x0 DUP1 REVERT JUMPDEST DUP3 CALLDATALOAD PUSH8 0xFFFFFFFFFFFFFFFF DUP1 DUP3 GT ISZERO PUSH2 0x32A JUMPI PUSH1 0x0 DUP1 REVERT JUMPDEST DUP2 DUP6 ADD SWAP2 POP DUP6 PUSH1 0x1F DUP4 ADD SLT PUSH2 0x33E JUMPI PUSH1 0x0 DUP1 REVERT JUMPDEST DUP2 CALLDATALOAD DUP2 DUP2 GT ISZERO PUSH2 0x34D JUMPI PUSH1 0x0 DUP1 REVERT JUMPDEST DUP7 PUSH1 0x20 DUP3 PUSH1 0x5 SHL DUP6 ADD ADD GT ISZERO PUSH2 0x362 JUMPI PUSH1 0x0 DUP1 REVERT JUMPDEST PUSH1 0x20 SWAP3 SWAP1 SWAP3 ADD SWAP7 SWAP2 SWAP6 POP SWAP1 SWAP4 POP POP POP POP JUMP JUMPDEST PUSH1 0x0 PUSH1 0x20 DUP3 DUP5 SUB SLT ISZERO PUSH2 0x386 JUMPI PUSH1 0x0 DUP1 REVERT JUMPDEST DUP2 CALLDATALOAD DUP1 ISZERO ISZERO DUP2 EQ PUSH2 0x2F8 JUMPI PUSH1 0x0 DUP1 REVERT JUMPDEST PUSH4 0x4E487B71 PUSH1 0xE0 SHL PUSH1 0x0 MSTORE PUSH1 0x32 PUSH1 0x4 MSTORE PUSH1 0x24 PUSH1 0x0 REVERT INVALID LOG2 PUSH5 0x6970667358 0x22 SLT KECCAK256 0xBF SWAP11 REVERT 0x21 0xE2 0xB1 0x22 REVERT EXTCODEHASH PUSH31 0x84F4B383F083F856F06CB2CE951CA3A0101F7428442C64736F6C6343000818 STOP CALLER "},"methodIdentifiers":{"batchRecordAccess(address[])":"d781c28a","batchRecordDeletion(address[])":"45893e1a","getUserState(address)":"416ae768","setConsent(bool)":"b707f371"}}}}}