{"contracts/ConsentBasic.sol":{"ConsentBasic":{"abi":[{"anonymous":false,"inputs":[{"indexed":true,"internalType":"address","name":"user","type":"address"},{"indexed":false,"internalType":"uint256","name":"totalRequests","type":"uint256"}],"name":"AccessRequested","type":"event"},{"anonymous":false,"inputs":[{"indexed":true,"internalType":"address","name":"user","type":"address"},{"indexed":false,"internalType":"bool","name":"consented","type":"bool"}],"name":"ConsentUpdated","type":"event"},{"anonymous":false,"inputs":[{"indexed":true,"internalType":"address","name":"user","type":"address"},{"indexed":false,"internalType":"uint256","name":"totalRequests","type":"uint256"}],"name":"DeletionRequested","type":"event"},{"inputs":[{"internalType":"address","name":"","type":"address"}],"name":"accessRequestCount","outputs":[{"internalType":"uint256","name":"","type":"uint256"}],"stateMutability":"view","type":"function"},{"inputs":[{"internalType":"address","name":"","type":"address"}],"name":"deletionRequestCount","outputs":[{"internalType":"uint256","name":"","type":"uint256"}],"stateMutability":"view","type":"function"},{"inputs":[],"name":"giveConsent","outputs":[],"stateMutability":"nonpayable","type":"function"},{"inputs":[{"internalType":"address","name":"","type":"address"}],"name":"hasConsented","outputs":[{"internalType":"bool","name":"","type":"bool"}],"stateMutability":"view","type":"function"},{"inputs":[],"name":"requestDataAccess","outputs":[],"stateMutability":"nonpayable","type":"function"},{"inputs":[],"name":"requestDeletion","outputs":[],"stateMutability":"nonpayable","type":"function"},{"inputs":[],"name":"revokeConsent","outputs":[],"stateMutability":"nonpayable","type":"function"}],"evm":{"bytecode":{"linkReferences":{},"object":"608060405234801561001057600080fd5b5061031b806100206000396000f3fe608060405234801561001057600080fd5b506004361061007d5760003560e01c80634bf80d391161005b5780634bf80d39146100f25780639ce751cb146100fa578063da069e8b14610102578063ff4c4d541461012257600080fd5b8063071db814146100825780631905a52b146100ba5780633f0af245146100e8575b600080fd5b6100a561009036600461028e565b60006020819052908152604090205460ff1681565b60405190151581526020015b60405180910390f35b6100da6100c836600461028e565b60016020526000908152604090205481565b6040519081526020016100b1565b6100f061012a565b005b6100f0610198565b6100f06101e4565b6100da61011036600461028e565b60026020526000908152604090205481565b6100f061024a565b336000908152600160208190526040822080549192909161014c9084906102be565b9091555050336000818152600160209081526040918290205491519182527f383cc34b0f756994f1690edba5293974b3590b2f802f0eec957436ab88218a0f91015b60405180910390a2565b3360008181526020818152604091829020805460ff1916600190811790915591519182527f7bdbd5ff3d003672492455cc5133da0a6ac7f911054f30d5f423443f90418c71910161018e565b3360009081526002602052604081208054600192906102049084906102be565b9091555050336000818152600260209081526040918290205491519182527f2de2bf92ac2bdd4cb3f75b65c2dee33e2d3eb589ebef868f88fc50b0967bd677910161018e565b33600081815260208181526040808320805460ff19169055519182527f7bdbd5ff3d003672492455cc5133da0a6ac7f911054f30d5f423443f90418c71910161018e565b6000602082840312156102a057600080fd5b81356001600160a01b03811681146102b757600080fd5b9392505050565b808201808211156102df57634e487b7160e01b600052601160045260246000fd5b9291505056fea26469706673582212203fa771c3dc1307664f2e875c590223ac5250eb2573efc1d0e83e62f12486354c64736f6c63430008180033","opcodes":"PUSH1 0x80 PUSH1 0x40 MSTORE CALLVALUE DUP1 ISZERO PUSH2 0x10 JUMPI PUSH1 0x0 DUP1 REVERT JUMPDEST POP PUSH2 0x31B DUP1 PUSH2 0x20 PUSH1 0x0 CODECOPY PUSH1 0x0 RETURN INVALID PUSH1 0x80 PUSH1 0x40 MSTORE CALLVALUE DUP1 ISZERO PUSH2 0x10 JUMPI PUSH1 0x0 DUP1 REVERT JUMPDEST POP PUSH1 0x4 CALLDATASIZE LT PUSH2 0x7D JUMPI PUSH1 0x0 CALLDATALOAD PUSH1 0xE0 SHR DUP1 PUSH4 0x4BF80D39 GT PUSH2 0x5B JUMPI DUP1 PUSH4 0x4BF80D39 EQ PUSH2 0xF2 JUMPI DUP1 PUSH4 0x9CE751CB EQ PUSH2 0xFA JUMPI DUP1 PUSH4 0xDA069E8B EQ PUSH2 0x102 JUMPI DUP1 PUSH4 0xFF4C4D54 EQ PUSH2 0x122 JUMPI PUSH1 0x0 DUP1 REVERT JUMPDEST DUP1 PUSH4 0x71DB814 EQ PUSH2 0x82 JUMPI DUP1 PUSH4 0x1905A52B EQ PUSH2 0xBA JUMPI DUP1 PUSH4 0x3F0AF245 EQ PUSH2 0xE8 JUMPI JUMPDEST PUSH1 0x0 DUP1 REVERT JUMPDEST PUSH2 0xA5 PUSH2 0x90 CALLDATASIZE PUSH1 0x4 PUSH2 0x28E JUMP JUMPDEST PUSH1 0x0 PUSH1 0x20 DUP2 SWAP1 MSTORE SWAP1 DUP2 MSTORE PUSH1 0x40 SWAP1 KECCAK256 SLOAD PUSH1 0xFF AND DUP2 JUMP JUMPDEST PUSH1 0x40 MLOAD SWAP1 ISZERO ISZERO DUP2 MSTORE PUSH1 0x20 ADD JUMPDEST PUSH1 0x40 MLOAD DUP1 SWAP2 SUB SWAP1 RETURN JUMPDEST PUSH2 0xDA PUSH2 0xC8 CALLDATASIZE PUSH1 0x4 PUSH2 0x28E JUMP JUMPDEST PUSH1 0x1 PUSH1 0x20 MSTORE PUSH1 0x0 SWAP1 DUP2 MSTORE PUSH1 0x40 SWAP1 KECCAK256 SLOAD DUP2 JUMP JUMPDEST PUSH1 0x40 MLOAD SWAP1 DUP2 MSTORE PUSH1 0x20 ADD PUSH2 0xB1 JUMP JUMPDEST PUSH2 0xF0 PUSH2 0x12A JUMP JUMPDEST STOP JUMPDEST PUSH2 0xF0 PUSH2 0x198 JUMP JUMPDEST PUSH2 0xF0 PUSH2 0x1E4 JUMP JUMPDEST PUSH2 0xDA PUSH2 0x110 CALLDATASIZE PUSH1 0x4 PUSH2 0x28E JUMP JUMPDEST PUSH1 0x2 PUSH1 0x20 MSTORE PUSH1 0x0 SWAP1 DUP2 MSTORE PUSH1 0x40 SWAP1 KECCAK256 SLOAD DUP2 JUMP JUMPDEST PUSH2 0xF0 PUSH2 0x24A JUMP JUMPDEST CALLER PUSH1 0x0 SWAP1 DUP2 MSTORE PUSH1 0x1 PUSH1 0x20 DUP2 SWAP1 MSTORE PUSH1 0x40 DUP3 KECCAK256 DUP1 SLOAD SWAP2 SWAP3 SWAP1 SWAP2 PUSH2 0x14C SWAP1 DUP5 SWAP1 PUSH2 0x2BE JUMP JUMPDEST SWAP1 SWAP2 SSTORE POP POP CALLER PUSH1 0x0 DUP2 DUP2 MSTORE PUSH1 0x1 PUSH1 0x20 SWAP1 DUP2 MSTORE PUSH1 0x40 SWAP2 DUP3 SWAP1 KECCAK256 SLOAD SWAP2 MLOAD SWAP2 DUP3 MSTORE PUSH32 0x383CC34B0F756994F1690EDBA5293974B3590B2F802F0EEC957436AB88218A0F SWAP2 ADD JUMPDEST PUSH1 0x40 MLOAD DUP1 SWAP2 SUB SWAP1 LOG2 JUMP JUMPDEST CALLER PUSH1 0x0 DUP2 DUP2 MSTORE PUSH1 0x20 DUP2 DUP2 MSTORE PUSH1 0x40 SWAP2 DUP3 SWAP1 KECCAK256 DUP1 SLOAD PUSH1 0xFF NOT AND PUSH1 0x1 SWAP1 DUP2 OR SWAP1 SWAP2 SSTORE SWAP2 MLOAD SWAP2 DUP3 MSTORE PUSH32 0x7BDBD5FF3D003672492455CC5133DA0A6AC7F911054F30D5F423443F90418C71 SWAP2 ADD PUSH2 0x18E JUMP JUMPDEST CALLER PUSH1 0x0 SWAP1 DUP2 MSTORE PUSH1 0x2 PUSH1 0x20 MSTORE PUSH1 0x40 DUP2 KECCAK256 DUP1 SLOAD PUSH1 0x1 SWAP3 SWAP1 PUSH2 0x204 SWAP1 DUP5 SWAP1 PUSH2 0x2BE JUMP JUMPDEST SWAP1 SWAP2 SSTORE POP POP CALLER PUSH1 0x0 DUP2 DUP2 MSTORE PUSH1 0x2 PUSH1 0x20 SWAP1 DUP2 MSTORE PUSH1 0x40 SWAP2 DUP3 SWAP1 KECCAK256 SLOAD SWAP2 MLOAD SWAP2 DUP3 MSTORE PUSH32 0x2DE2BF92AC2BDD4CB3F75B65C2DEE33E2D3EB589EBEF868F88FC50B0967BD677 SWAP2 ADD PUSH2 0x18E JUMP JUMPDEST CALLER PUSH1 0x0 DUP2 DUP2 MSTORE PUSH1 0x20 DUP2 DUP2 MSTORE PUSH1 0x40 DUP1 DUP4 KECCAK256 DUP1 SLOAD PUSH1 0xFF NOT AND SWAP1 SSTORE MLOAD SWAP2 DUP3 MSTORE PUSH32 0x7BDBD5FF3D003672492455CC5133DA0A6AC7F911054F30D5F423443F90418C71 SWAP2 ADD PUSH2 0x18E JUMP JUMPDEST PUSH1 0x0 PUSH1 0x20 DUP3 DUP5 SUB SLT ISZERO PUSH2 0x2A0 JUMPI PUSH1 0x0 DUP1 REVERT JUMPDEST DUP2 CALLDATALOAD PUSH1 0x1 PUSH1 0x1 PUSH1 0xA0 SHL SUB DUP2 AND DUP2 EQ PUSH2 0x2B7 JUMPI PUSH1 0x0 DUP1 REVERT JUMPDEST SWAP4 SWAP3 POP POP POP JUMP JUMPDEST DUP1 DUP3 ADD DUP1 DUP3 GT ISZERO PUSH2 0x2DF JUMPI PUSH4 0x4E487B71 PUSH1 0xE0 SHL PUSH1 0x0 MSTORE PUSH1 0x11 PUSH1 0x4 MSTORE PUSH1 0x24 PUSH1 0x0 REVERT JUMPDEST SWAP3 SWAP2 POP POP JUMP INVALID LOG2 PUSH5 0x6970667358 0x22 SLT KECCAK256 EXTCODEHASH 0xA7 PUSH18 0xC3DC1307664F2E875C590223AC5250EB2573 0xEF 0xC1 0xD0 0xE8 RETURNDATACOPY PUSH3 0xF12486 CALLDATALOAD 0x4C PUSH5 0x736F6C6343 STOP ADDMOD XOR STOP CALLER "},"methodIdentifiers":{"accessRequestCount(address)":"1905a52b","deletionRequestCount(address)":"da069e8b","giveConsent()":"4bf80d39","hasConsented(address)":"071db814","requestDataAccess()":"3f0af245","requestDeletion()":"9ce751cb","revokeConsent()":"ff4c4d54"}}}}}