{
  "_format": "hh-sol-artifact-1",
  "contractName": "ConsentBasic",
  "sourceName": "contracts/ConsentBasic.sol",
  "abi": [
    {
      "anonymous": false,
      "inputs": [
        {
          "indexed": true,
          "internalType": "address",
          "name": "user",
          "type": "address"
        },
        {
          "indexed": false,
          "internalType": "uint256",
          "name": "totalRequests",
          "type": "uint256"
        }
      ],
      "name": "AccessRequested",
      "type": "event"
    },
    {
      "anonymous": false,
      "inputs": [
        {
          "indexed": true,
          "internalType": "address",
          "name": "user",
          "type": "address"
        },
        {
          "indexed": false,
          "internalType": "bool",
          "name": "consented",
          "type": "bool"
        }
      ],
      "name": "ConsentUpdated",
      "type": "event"
    },
    {
      "anonymous": false,
      "inputs": [
        {
          "indexed": true,
          "internalType": "address",
          "name": "user",
          "type": "address"
        },
        {
          "indexed": false,
          "internalType": "uint256",
          "name": "totalRequests",
          "type": "uint256"
        }
      ],
      "name": "DeletionRequested",
      "type": "event"
    },
    {
      "inputs": [
        {
          "internalType": "address",
          "name": "",
          "type": "address"
        }
      ],
      "name": "accessRequestCount",
      "outputs": [
        {
          "internalType": "uint256",
          "name": "",
          "type": "uint256"
        }
      ],
      "stateMutability": "view",
      "type": "function"
    },
    {
      "inputs": [
        {
          "internalType": "address",
          "name": "",
          "type": "address"
        }
      ],
      "name": "deletionRequestCount",
      "outputs": [
        {
          "internalType": "uint256",
          "name": "",
          "type": "uint256"
        }
      ],
      "stateMutability": "view",
      "type": "function"
    },
    {
      "inputs": [],
      "name": "giveConsent",
      "outputs": [],
      "stateMutability": "nonpayable",
      "type": "function"
    },
    {
      "inputs": [
        {
          "internalType": "address",
          "name": "",
          "type": "address"
        }
      ],
      "name": "hasConsented",
      "outputs": [
        {
          "internalType": "bool",
          "name": "",
          "type": "bool"
        }
      ],
      "stateMutability": "view",
      "type": "function"
    },
    {
      "inputs": [],
      "name": "requestDataAccess",
      "outputs": [],
      "stateMutability": "nonpayable",
      "type": "function"
    },
    {
      "inputs": [],
      "name": "requestDeletion",
      "outputs": [],
      "stateMutability": "nonpayable",
      "type": "function"
    },
    {
      "inputs": [],
      "name": "revokeConsent",
      "outputs": [],
      "stateMutability": "nonpayable",
      "type": "function"
    }
  ],
  "bytecode": "0x608060405234801561001057600080fd5b5061031b806100206000396000f3fe608060405234801561001057600080fd5b506004361061007d5760003560e01c80634bf80d391161005b5780634bf80d39146100f25780639ce751cb146100fa578063da069e8b14610102578063ff4c4d541461012257600080fd5b8063071db814146100825780631905a52b146100ba5780633f0af245146100e8575b600080fd5b6100a561009036600461028e565b60006020819052908152604090205460ff1681565b60405190151581526020015b60405180910390f35b6100da6100c836600461028e565b60016020526000908152604090205481565b6040519081526020016100b1565b6100f061012a565b005b6100f0610198565b6100f06101e4565b6100da61011036600461028e565b60026020526000908152604090205481565b6100f061024a565b336000908152600160208190526040822080549192909161014c9084906102be565b9091555050336000818152600160209081526040918290205491519182527f383cc34b0f756994f1690edba5293974b3590b2f802f0eec957436ab88218a0f91015b60405180910390a2565b3360008181526020818152604091829020805460ff1916600190811790915591519182527f7bdbd5ff3d003672492455cc5133da0a6ac7f911054f30d5f423443f90418c71910161018e565b3360009081526002602052604081208054600192906102049084906102be565b9091555050336000818152600260209081526040918290205491519182527f2de2bf92ac2bdd4cb3f75b65c2dee33e2d3eb589ebef868f88fc50b0967bd677910161018e565b33600081815260208181526040808320805460ff19169055519182527f7bdbd5ff3d003672492455cc5133da0a6ac7f911054f30d5f423443f90418c71910161018e565b6000602082840312156102a057600080fd5b81356001600160a01b03811681146102b757600080fd5b9392505050565b808201808211156102df57634e487b7160e01b600052601160045260246000fd5b9291505056fea26469706673582212203fa771c3dc1307664f2e875c590223ac5250eb2573efc1d0e83e62f12486354c64736f6c63430008180033",
  "linkReferences": {},
  "deployedLinkReferences": {}
}